:04000000F7EF02F024
:1000080000C015F0F2A204D0010E416EF29215D094
:10001800F2A413D0162A0001994B9A2B800E9A1934
:10002800006E800E010A005C02E1F40E995D04E3A3
:100038008174996B9A6BD66AF29415C000F011001E
:10004800016A080E015C11E20001A9AF02D08286A4
:1000580001D08296A937A9918284006A82B8002AC1
:100068000050A9138294012AECD7A9C000F012000D
:100078008292A7C0A9F0E4DF00C093F0A8C0A9F05D
:06008800DFDF828212009E
:10008E008292A7C0A9F0D9DF00C093F0A96BD5DF8B
:04009E008282120048
:1000A200E10E0001A76FA86BE6DF8290A76BEEDF7F
:1000B200FE0E0014A86F200EA76FDDDF82801200F3
:1000C200E20E0001A76FA86BD6DF070EA76FDEDF77
:1000D200270EA76F00C0A8F0CEDF8290A76BD6DFF5
:1000E200010E0010A86F200EA76FC5DF82801200DC
:1000F2008292A2C0A9F0A7DF00C093F0A66BA5511F
:10010200A65D0BE2A3C0E9FFA4C0EAFFEECFA9F00F
:0E0112009ADFA34BA42BA62BF2D782821200F9
:10012000070E0001A76FB3DF00C0A3F0800E00161A
:1001300000C0A3F0005204E0A251000A01E107D080
:10014000A351000A03E1A25301E001D005D0500EF3
:0A015000A76F530EA86F90DF120096
:10015A000F0EC16E100E946E826A010E936E816A42
:10016A00B480B482B484D58CD59AD596D580D592EC
:10017A00D594D58EF28AF288F19CF28E836AFF0EAC
:04018A00956E12005C
:10018E000900F5CFE6FF0006FBE10106F9E11200DA
:10019E009CC094F07FDF8290A00EA26F940EA36F8E
:1001AE00000EA46F050EA56F9DDF416A8280080EBA
:1001BE000D6E0D2EFED78290166A41521AE0070E72
:1001CE00A76F5EDF00C09DF000BA03D09DB901D0CD
:1001DE000FD09DA904D0E10EA76FA86B46DF200EAD
:1001EE00D810A76F9DC0A8F040DF8192416A0AD057
:1001FE0008D00A0E165C05E3E10EA76FA86B35DF7B
:08020E0001D0DBD757DF12001D
:10021600820E0C6EDD0E0D6E0D2EFED70C2EFCD74B
:10022600000000000001A26B78DF140E9C6F800EA8
:100236009C19006E800E000A005C31E39CC000F041
:10024600000E9CBFFF0E016E003600900136170EA1
:100256000026000E012200C0D9FF01C0DAFF200EE1
:10026600DE10A76F010E0024E96E000E0120EA6E73
:10027600EECFA8F0FEDE9CC000F0000E9CBFFF0E85
:10028600016E003600900136170E0024E96E000E4E
:100296000120EA6EEECFA7F0F7DE9C07C8D72A0E3C
:1002A600A26F420EA36F000EA46F050EA56F1EDF90
:1002B600300EA26F8A0EA36F000EA46F050EA56FF7
:1002C60015DF1D0EA76FE0DE00C09CF00050000A8F
:1002D60005E1500EA76F730EA86FCBDE010E9C6F63
:1002E600800E9C19006E800E000A005C31E39CC0F3
:1002F60000F0000E9CBFFF0E016E00360090013626
:100306008F0E0026000E012200C0D9FF01C0DAFFC1
:10031600200EDE10A76F010E0024E96E000E0120EC
:10032600EA6EEECFA8F0A5DE9CC000F0000E9CBFE2
:10033600FF0E016E0036009001368F0E0024E96E26
:10034600000E0120EA6EEECFA7F09EDE9C07C8D70E
:10035600010EA26FE2DE9C6B800E080A006E800E14
:100366009C19005C61E39D6B800E9D19006E800EEA
:10037600040A005C4DE29E0EE16E000EE26E9D5197
:10038600E126000E9DBFFF0EE2229CC000F0000E8B
:100396009CBFFF0E016E00360090013600360090BD
:1003A6000136520E0024E96E000E0120EA6EEECFF1
:1003B60005F0EECF06F0EECF07F0EECF08F0030E15
:1003C600026E9DC000F0000E9DBFFF0E016E025032
:1003D60005E0003600900136FF0FFAD700C004F0A2
:1003E60005C000F006C001F007C002F008C003F027
:1003F600045007E00332023201320032039EFF0F3F
:10040600F8D7FF0E0014006E00C0E6FF9D2BACD798
:10041600200E9C11A26F9E0EA36F000EA46F040EF9
:10042600A56F64DE9C2B98D7090E9C6F800E0D0A73
:10043600006E800E9C19005C67E39D6B800E9D1913
:10044600006E800E040A005C53E29E0EE16E000E02
:10045600E26E9D51E126000E9DBFFF0EE2229CC07A
:1004660000F0000E9CBFFF0E016E003600900136B4
:10047600003600900136520E0024E96E000E01206F
:10048600EA6EEECF05F0EECF06F0EECF07F0EECF38
:1004960008F09D510308036E046A000E9DBFFF0E0F
:1004A600045A030E026E03C000F004C001F00250AD
:1004B60005E0003600900136FF0FFAD700C004F0C1
:1004C60005C000F006C001F007C002F008C003F046
:1004D600045007E00332023201320032039EFF0F5E
:1004E600F8D7FF0E0014006E00C0E6FF9D2BA6D7BE
:1004F600200E9C11A26F9E0EA36F000EA46F040E19
:10050600A56FF4DD9C2B92D72E0EA26F470EA36F1C
:10051600000EA46F0B0EA56FE9DD9D6B800E9D1975
:10052600006E800E040A005C33E29E0EE16E000E41
:10053600E26E9D51E126000E9DBFFF0EE222030EE4
:10054600026E9DC000F0000E9DBFFF0E016E0250B0
:1005560005E0003600900136FF0FFAD700C004F020
:1005660062C000F063C001F064C002F065C003F031
:10057600045007E00332023201320032039EFF0FBD
:10058600F8D7FF0E0014006E00C0E6FF9D2BC6D7FD
:10059600060E9E13240EA26F9E0EA36F000EA46F6E
:1005A600040EA56FA3DDF90E9E17240EA26F9E0EF4
:1005B600A36F000EA46F040EA56F98DD0D0E0C6ED2
:1005C600FB0E0D6E0D2EFED70C2EFCD70000000084
:1005D600A26BA3DD73DDE20EA76FA86B4ADDE10E09
:0805E600A76FA86B46DD1200AF
:1005EE0050EC03F0B3DD10DE9B6B9B51831810E0D3
:1005FE0083CF9BF081829BC09CF0CADD820E0C6E75
:10060E00DD0E0D6E0D2EFED70C2EFCD70000000059
:04061E00ECD7FFD73F
:1006A00010EE16F07D0E006E010E016E220EF66E3B
:0E06B000060EF76E000EF86EC7EC00F012009A
:0106220000D7
:10062300000F0101020103030425052006150770CD
:10063300080009000CC30DC40EC50FC611201220FB
:0A06430013201420152016201711B3
:01064D0000AC
:05064E003A3B3C3D01B8
:0B065300412008048120CFF7FEFFFFCC
:10065E00404B01E2C04B0000D0FC8C0299003941A6
:10066E00D99E860B24067FA6000000000000000025
:10067E00000000000000000000000000000000006C
:08068E00007312000080B43675
:050696003A3B3C3D0170
:04069B001C011D041D
:020000040030CA
:0D000100021F1EFF8281FF0FC00FE00F40A5
:00000001FF
