:0400000015EF03F005
:1000080000C015F0F2A204D0010E456EF29215D090
:10001800F2A413D04B2A0001994B9A2B800E9A19FF
:10002800006E800E010A005C02E1F40E995D04E3A3
:100038008174996B9A6BD66AF29415C000F011001E
:10004800016A080E015C11E20001ADAF02D08286A0
:1000580001D08296AD37AD918284006A82B8002AB9
:100068000050AD138294012AECD7ADC000F0120005
:100078008292A6C0ADF0E4DF00C098F0A7C0ADF052
:06008800DFDF828212009E
:10008E008292A6C0ADF0D9DFAA6BA951AA5D10E28B
:10009E00AA51A725AB6F000EA821AC6FAD6BCDDFBB
:1000AE00ABC0E1FFACC0E2FF00C0E6FFAA2BEDD76C
:0400BE008282120028
:1000C2008292A6C0ADF0BFDF00C098F0AD6BBBDF7F
:0400D2008282120014
:1000D600E20E0001A66FA76BCCDF070EA66FEEDF60
:1000E600270EA66F00C0A7F0C4DF8290A66BE6DFDE
:1000F600010E0010A76F200EA66FBBDF82801200D4
:100106008292A1C0ADF09DDF00C098F0A56BA4510E
:10011600A55D0BE2A2C0E9FFA3C0EAFFEECFADF0FA
:0E01260090DFA24BA32BA52BF2D782821200F2
:100134000001A56B600EA66FC2DF00C0A4F00050E2
:10014400A35D02E2A3C0A4F0A56BA351A55D09E2DF
:10015400A551A125E16E000EA221E26EE66AA52B4F
:10016400F4D7610EA66FA1C0A7F0A2C0A8F0A4C0E6
:0A017400A9F08BDFA4C000F0120018
:10017E00070E0001A66F9EDF00C0A2F0800E0016D3
:10018E0000C0A2F0005204E0A151000A01E107D024
:10019E00A251000A03E1A15301E001D005D0500E97
:0A01AE00A66F530EA76F61DF120069
:1001B8000F0EC16E100E946E826A010E936E816AE4
:1001C800B480B482B484D58CD59AD596D580D5928E
:1001D800D594D58EF28AF288F19CF28E836A956A5C
:0201E800120003
:1001EA000900F5CFE6FF0006FBE10106F9E112007E
:1001FA00455222E0F29E456AD8CFA6F05DDF00C0E4
:10020A009BF000AC0CD0930EA16F000EA26F050EEE
:10021A00A36F8BDF0050050A02E193C083FF9BA9FD
:10022A0004D0E10EA66FA76B22DF200ED810A66FAE
:10023A009BC0A7F01CDFF28E0001200ED810A66F1B
:08024A009BC0A7F014DF1200B5
:10025200820E0C6EDD0E0D6E0D2EFED70C2EFCD70F
:10026200000000000001A16B89DF140E9B6F800E5D
:100272009B19006E800E000A005C31E39BC000F007
:10028200000E9BBFFF0E016E003600900136160E67
:100292000026000E012200C0D9FF01C0DAFF200EA5
:1002A200DE10A66F010E0024E96E000E0120EA6E38
:1002B200EECFA7F0E0DE9BC000F0000E9BBFFF0E6A
:1002C200016E003600900136160E0024E96E000E13
:1002D2000120EA6EEECFA6F0F3DE9B07C8D72A0E06
:1002E200A16F400EA26F000EA36F050EA46F0ADF6E
:1002F200300EA16F460EA26F000EA36F050EA46F03
:1003020001DF1D0EA66FDCDE00C09BF00050000A6C
:1003120005E1500EA66F730EA76FADDE010E9B6F47
:10032200800E9B19006E800E000A005C31E39BC0B8
:1003320000F0000E9BBFFF0E016E003600900136EA
:10034200570E0026000E012200C0D9FF01C0DAFFBD
:10035200200EDE10A66F010E0024E96E000E0120B1
:10036200EA6EEECFA7F087DE9BC000F0000E9BBFC7
:10037200FF0E016E003600900136570E0024E96E22
:10038200000E0120EA6EEECFA6F09ADE9B07C8D7D8
:10039200010EA16FF3DE9B6B800E080A006E800EC9
:1003A2009B19005C61E39C6B800E9C19006E800EB1
:1003B200040A005C4DE29D0EE16E000EE26E9C515D
:1003C200E126000E9CBFFF0EE2229BC000F0000E51
:1003D2009BBFFF0E016E0036009001360036009082
:1003E20001365B0E0024E96E000E0120EA6EEECFAC
:1003F20005F0EECF06F0EECF07F0EECF08F0030ED9
:10040200026E9CC000F0000E9CBFFF0E016E0250F7
:1004120005E0003600900136FF0FFAD700C004F065
:1004220005C000F006C001F007C002F008C003F0EA
:10043200045007E00332023201320032039EFF0F02
:10044200F8D7FF0E0014006E00C0E6FF9C2BACD75D
:10045200200E9B11A16F9D0EA26F000EA36F040EC2
:10046200A46F50DE9B2B98D7090E9B6F800E0D0A4E
:10047200006E800E9B19005C67E39C6B800E9C19DA
:10048200006E800E040A005C53E29D0EE16E000EC7
:10049200E26E9C51E126000E9CBFFF0EE2229BC041
:1004A20000F0000E9BBFFF0E016E00360090013679
:1004B2000036009001365B0E0024E96E000E01202A
:1004C200EA6EEECF05F0EECF06F0EECF07F0EECFFC
:1004D20008F09C510308036E046A000E9CBFFF0ED5
:1004E200045A030E026E03C000F004C001F0025071
:1004F20005E0003600900136FF0FFAD700C004F085
:1005020005C000F006C001F007C002F008C003F009
:10051200045007E00332023201320032039EFF0F21
:10052200F8D7FF0E0014006E00C0E6FF9C2BA6D782
:10053200200E9B11A16F9D0EA26F000EA36F040EE1
:10054200A46FE0DD9B2B92D72E0EA16F4C0EA26FF3
:10055200000EA36F0B0EA46FD5DD9C6B800E9C1951
:10056200006E800E040A005C33E29D0EE16E000E06
:10057200E26E9C51E126000E9CBFFF0EE222030EAA
:10058200026E9CC000F0000E9CBFFF0E016E025076
:1005920005E0003600900136FF0FFAD700C004F0E4
:1005A2006BC000F06CC001F06DC002F06EC003F0D1
:1005B200045007E00332023201320032039EFF0F81
:1005C200F8D7FF0E0014006E00C0E6FF9C2BC6D7C2
:1005D200060E9D13240EA16F9D0EA26F000EA36F37
:1005E200040EA46F8FDDF90E9D17240EA16F9D0ED0
:1005F200A26F000EA36F040EA46F84DD0D0E0C6EAD
:10060200FB0E0D6E0D2EFED70C2EFCD70000000047
:10061200A16BB4DD5FDDE20EA66FA76B2CDDE10EF0
:08062200A66FA76B28DD120092
:10062A0065EC03F0C4DD10DEE3DD820E0C6EDD0E38
:10063A000D6E0D2EFED70C2EFCD700000000F4D74D
:02064A00FFD7D8
:1006CA0010EE16F07D0E006E010E016E4C0EF66EE7
:0E06DA00060EF76E000EF86EF5EC00F0120042
:10064C00000F0101020103030425052006150770A4
:10065C00080009000CC30DC40EC50FC611201220D2
:0A066C00132014201520162017118A
:050676003A3B3C3D0190
:01067B00007E
:05067C003A3B3C3D018A
:010681000078
:0B068200412008048120CFF7FEFFFF9D
:04068D001C011D042B
:10069100404B01E2C04B0000D0FC8C029900394173
:1006A100D99E860B24067FA60000000000000000F2
:1006B1000000000000000000000000000000000039
:0806C100007312000080B43642
:020000040030CA
:0D000100021F1EFF8281FF0FC00FE00F40A5
:00000001FF
